:020000040800F2
:1000000000000320C509000851090008570900082D
:100010005D09000863090008690900080000000084
:10002000000000000000000000000000B1320008E5
:100030006F09000800000000013500087D09000874
:10004000150A0008150A0008150A0008150A000814
:10005000150A0008150A0008150A0008150A000804
:10006000150A0008150A0008150A0008150A0008F4
:10007000150A0008150A0008150A0008150A0008E4
:10008000150A0008150A0008150A0008150A0008D4
:10009000150A0008150A0008150A0008150A0008C4
:1000A000150A0008150A0008150A0008150A0008B4
:1000B000150A0008150A0008150A0008150A0008A4
:1000C000150A0008150A0008150A0008150A000894
:1000D000150A0008150A0008150A0008150A000884
:1000E000150A0008150A0008150A0008150A000874
:1000F000150A0008150A0008150A0008150A000864
:10010000150A0008150A0008150A0008150A000853
:10011000150A0008150A0008150A0008150A000843
:10012000150A0008150A0008150A0008150A000833
:10013000150A0008150A0008150A0008150A000823
:10014000150A0008150A0008150A0008150A000813
:10015000150A0008150A0008150A0008150A000803
:10016000150A0008150A0008150A0008150A0008F3
:10017000150A0008150A0008150A0008000000000A
:10018000150A0008150A0008150A0008150A0008D3
:10019000150A0008150A0008150A0008150A0008C3
:0C01A000150A0008150A0008150A0008DE
:1001B00010B5054C237833B9044B13B10448AFF3A1
:1001C00000800123237010BD1000002000000000FB
:1001D000343A000808B5034B1BB103490348AFF399
:1001E000008008BD0000000014000020343A000820
:1001F000034613F8012B002AFBD1181A0138704767
:1002000053B94AB9002908BF00281CBF4FF0FF317D
:100210004FF0FF3000F074B9ADF1080C6DE904CE79
:1002200000F006F8DDF804E0DDE9022304B07047D1
:100230002DE9F047089D04468E46002B4DD18A4299
:10024000944669D9B2FA82F252B101FA02F3C2F1CC
:10025000200120FA01F10CFA02FC41EA030E94405D
:100260004FEA1C48210CBEFBF8F61FFA8CF708FB7E
:1002700016E341EA034306FB07F199420AD91CEB56
:10028000030306F1FF3080F01F81994240F21C8188
:10029000023E63445B1AA4B2B3FBF8F008FB1033D0
:1002A00044EA034400FB07F7A7420AD91CEB040405
:1002B00000F1FF3380F00A81A74240F207816444D5
:1002C000023840EA0640E41B00261DB1D44000235A
:1002D000C5E900433146BDE8F0878B4209D9002DBE
:1002E00000F0EF800026C5E9000130463146BDE848
:1002F000F087B3FA83F6002E4AD18B4202D38242B2
:1003000000F2F980841A61EB030301209E46002D60
:10031000E0D0C5E9004EDDE702B9FFDEB2FA82F2B5
:10032000002A40F09280A1EB0C014FEA1C471FFA13
:100330008CFE0126200CB1FBF7F307FB131140EAFA
:1003400001410EFB03F0884208D91CEB010103F1C7
:10035000FF3802D2884200F2CB804346091AA4B289
:10036000B1FBF7F007FB101144EA01440EFB00FE5D
:10037000A64508D91CEB040400F1FF3102D2A645C2
:1003800000F2BB800846A4EB0E0440EA03409CE761
:10039000C6F12007B34022FA07FC4CEA030C20FA0E
:1003A00007F401FA06F31C43F9404FEA1C4900FA2E
:1003B00006F3B1FBF9F8200C1FFA8CFE09FB1811AB
:1003C00040EA014108FB0EF0884202FA06F20BD91E
:1003D0001CEB010108F1FF3A80F08880884240F26E
:1003E0008580A8F102086144091AA4B2B1FBF9F0B2
:1003F00009FB101144EA014100FB0EFE8E4508D9AD
:100400001CEB010100F1FF346CD28E456AD9023831
:10041000614440EA0840A0FB0294A1EB0E01A14216
:10042000C846A64656D353D05DB1B3EB080261EB84
:100430000E0101FA07F722FA06F3F1401F43C5E95E
:10044000007100263146BDE8F087C2F12003D84094
:100450000CFA02FC21FA03F3914001434FEA1C47D6
:100460001FFA8CFEB3FBF7F007FB10360B0C43EAC8
:10047000064300FB0EF69E4204FA02F408D91CEB78
:10048000030300F1FF382FD29E422DD90238634476
:100490009B1B89B2B3FBF7F607FB163341EA034116
:1004A00006FB0EF38B4208D91CEB010106F1FF3865
:1004B00016D28B4214D9023E6144C91A46EA00465C
:1004C00038E72E46284605E70646E3E61846F8E6EE
:1004D0004B45A9D2B9EB020864EB0C0E0138A3E737
:1004E0004646EAE7204694E74046D1E7D0467BE718
:1004F000023B614432E7304609E76444023842E790
:10050000704700BF80B485B000AFF860B9607A6012
:10051000FB68074A1A60BB68064A1A607B6880223B
:100520001A6000BF1437BD465DF8047B704700BFFA
:100530002C0000208000002080B586B000AF7860DD
:100540000B4A07F10C0307CA83E8070007F10C0305
:100550001846FFF74DFE03469AB207F10C010A2335
:10056000044801F0D6FC4FF4FA7002F095FAEDE77A
:100570004C3A0008A002002080B586B000AF786039
:10058000FA237B610D4A07F1080307CA03C31A80E7
:100590000233120C1A7002F055FF07F108031846D7
:1005A000FFF726FE03469AB207F108010A23044822
:1005B00001F0AFFC02F076FFEDE700BF583A00080B
:1005C000A002002080B582B002AF00F025FA00F052
:1005D00025F800F0D5F800F0A9F800F081F8002324
:1005E0000193012300930023F0220849084802F0F8
:1005F0001DF900230193022300930023F0220549F3
:10060000054802F013F901F0F9FFFEE7643A00082B
:1006100079050008703A00083905000880B594B0E3
:1006200000AF07F1200330220021184603F0FAF949
:1006300007F10C0300221A605A609A60DA601A61AE
:100640000023BB60244B1B6C234A43F0805313648C
:10065000214B1B6C03F08053BB60BB6800237B60A5
:100660001E4B1B6823F440431C4A43F48043136031
:100670001A4B1B6803F440437B607B680A233B6290
:100680000123FB6210233B6301237B630023BB63D5
:1006900007F12003184600F0DDFC0346002B01D0D3
:1006A00000F0B2F80F23FB6000233B6100237B6165
:1006B0000023BB610023FB6107F10C0300211846F6
:1006C00000F040FF0346002B01D000F09DF800BF72
:1006D0005037BD4680BD00BF00380240007000406A
:1006E00080B500AF0F4B104A1A600E4B00225A60C3
:1006F0000C4B7F229A600B4BFF22DA60094B0022E1
:100700001A61084B00225A61064B00229A61054883
:1007100001F0B8FA0346002B01D000F075F800BFD5
:1007200080BD00BF800200200028004080B500AFDF
:10073000114B124A1A60104B4FF4E1325A600E4BC3
:1007400000229A600C4B0022DA600B4B00221A61E7
:10075000094B0C225A61084B00229A61064B002279
:10076000DA61054801F088FB0346002B01D000F058
:100770004BF800BF80BD00BFA00200200010014068
:1007800080B588B000AF07F10C0300221A605A60F0
:100790009A60DA601A610023BB60194B1B6B184A20
:1007A00043F001031363164B1B6B03F00103BB60A3
:1007B000BB6800237B60124B1B6B114A43F0400364
:1007C00013630F4B1B6B03F040037B607B680022BD
:1007D0004FF4C0410B4800F023FC4FF4C043FB60D2
:1007E00001233B6100237B610023BB6107F10C0304
:1007F0001946044800F068FA00BF2037BD4680BDA6
:10080000003802400018024080B400AF72B600BF4A
:10081000FEE7000080B582B000AF00237B60124B82
:100820005B6C114A43F4804353640F4B5B6C03F4DD
:1008300080437B607B6800233B600B4B1B6C0A4A48
:1008400043F080531364084B1B6C03F080533B60F0
:100850003B6800220F216FF0010000F00CFA00BF8E
:100860000837BD4680BD00BF0038024080B58EB05D
:1008700000AF786007F1080330220021184603F02A
:10088000D1F87B681B680C4A934211D12023BB60CE
:100890004FF400733B6307F10803184601F032F888
:1008A0000346002B01D0FFF7AFFF044B01221A6073
:1008B00000BF3837BD4680BD002800403C0E47428F
:1008C00080B58AB000AF786007F1140300221A6087
:1008D0005A609A60DA601A617B681B68194A934211
:1008E0002CD100233B61184B5B6C174A43F010037B
:1008F0005364154B5B6C03F010033B613B690023B1
:10090000FB60114B1B6B104A43F0010313630E4B4A
:100910001B6B03F00103FB60FB684FF4C0637B615A
:100920000223BB610023FB6103233B6207237B623D
:1009300007F114031946054800F0C6F900BF28372F
:10094000BD4680BD0010014000380240000002405A
:1009500080B400AFFEE780B400AFFEE780B400AF24
:10096000FEE780B400AFFEE780B400AFFEE780B4DE
:1009700000AF00BFBD465DF8047B704780B500AF97
:1009800000F09CF802F0B0FB0346012B01D002F00E
:10099000EBFD00BF80BD000080B400AF084BD3F872
:1009A0008830074A43F47003C2F88830044B4FF094
:1009B00000629A6000BFBD465DF8047B704700BFCF
:1009C00000ED00E0DFF834D00D480E490E4A002358
:1009D00002E0D458C4500433C4188C42F9D30B4AF3
:1009E0000B4C002301E013600432A242FBD3FFF75B
:1009F000D3FF02F0F3FFFFF7E5FD7047000003208F
:100A00000000002010000020AC3A00081000002078
:100A10003C400020FEE7000080B500AF0E4B1B6895
:100A20000D4A43F4007313600B4B1B680A4A43F4EE
:100A300080631360084B1B68074A43F4807313609C
:100A4000032000F00DF90F2000F008F8FFF7E2FE98
:100A50000023184680BD00BF003C024080B582B034
:100A600000AF7860124B1A68124B1B7819464FF48E
:100A70007A73B3FBF1F3B2FBF3F3184600F017F906
:100A80000346002B01D001230EE07B680F2B0AD810
:100A9000002279684FF0FF3000F0EDF8064A7B68DD
:100AA0001360002300E0012318460837BD4680BDCF
:100AB00000000020080000200400002080B400AFE7
:100AC000064B1B781A46064B1B681344044A1360F6
:100AD00000BFBD465DF8047B704700BF08000020E2
:100AE000E402002080B400AF034B1B681846BD46EB
:100AF0005DF8047B704700BFE402002080B485B03D
:100B000000AF78607B6803F00703FB600C4BDB6889
:100B1000BB60BA684FF6FF031340BB60FB681A0264
:100B2000BB68134343F0BF6343F40033BB60044A24
:100B3000BB68D36000BF1437BD465DF8047B7047C7
:100B400000ED00E080B400AF044BDB681B0A03F04B
:100B500007031846BD465DF8047B704700ED00E0D2
:100B600080B483B000AF03463960FB7197F907305A
:100B7000002B0ADB3B68DAB20C4997F90730120107
:100B8000D2B20B4483F800230AE03B68DAB208498A
:100B9000FB7903F00F03043B1201D2B20B441A7627
:100BA00000BF0C37BD465DF8047B704700E100E0F4
:100BB00000ED00E080B489B000AFF860B9607A6001
:100BC000FB6803F00703FB61FB69C3F10703042B18
:100BD00028BF0423BB61FB690433062B02D9FB69E0
:100BE000033B00E000237B614FF0FF32BB6902FA58
:100BF00003F3DA43BB681A407B699A404FF0FF3138
:100C00007B6901FA03F3D9437B680B401343184611
:100C10002437BD465DF8047B7047000080B582B084
:100C200000AF78607B68013BB3F1807F01D3012383
:100C30000FE00A4A7B68013B53600F214FF0FF3001
:100C4000FFF78EFF054B00229A60044B07221A60C3
:100C5000002318460837BD4680BD00BF10E000E005
:100C600080B582B000AF78607868FFF747FF00BFBB
:100C70000837BD4680BD80B586B000AF0346B96079
:100C80007A60FB7300237B61FFF75CFF78617A6811
:100C9000B9687869FFF78EFF024697F90F30114661
:100CA0001846FFF75DFF00BF1837BD4680BD80B511
:100CB00082B000AF78607868FFF7B0FF034618464F
:100CC0000837BD4680BD000080B489B000AF7860B1
:100CD000396000237B6100233B610023BB6100235B
:100CE000FB6177E10122FB6902FA03F37B613B6858
:100CF0001B687A6913403B613A697B699A4240F00C
:100D000066813B685B6803F00303012B05D03B68F9
:100D10005B6803F00303022B30D17B689B68BB61E7
:100D2000FB695B00032202FA03F3DB43BA69134059
:100D3000BB613B68DA68FB695B0002FA03F3BA69DE
:100D40001343BB617B68BA699A607B685B68BB616F
:100D50000122FB6902FA03F3DB43BA691340BB616A
:100D60003B685B681B0903F00102FB6902FA03F3AD
:100D7000BA691343BB617B68BA695A603B685B68B8
:100D800003F00303032B17D07B68DB68BB61FB69AF
:100D90005B00032202FA03F3DB43BA691340BB6131
:100DA0003B689A68FB695B0002FA03F3BA69134374
:100DB000BB617B68BA69DA603B685B6803F0030378
:100DC000022B23D1FB69DA087B68083253F8223002
:100DD000BB61FB6903F007039B000F2202FA03F3D8
:100DE000DB43BA691340BB613B681A69FB6903F0D6
:100DF00007039B0002FA03F3BA691343BB61FB6963
:100E0000DA087B680832B96943F822107B681B68EE
:100E1000BB61FB695B00032202FA03F3DB43BA699F
:100E20001340BB613B685B6803F00302FB695B0036
:100E300002FA03F3BA691343BB617B68BA691A60AB
:100E40003B685B6803F44033002B00F0C080002354
:100E5000FB60664B5B6C654A43F480435364634BB1
:100E60005B6C03F48043FB60FB68614AFB699B0891
:100E7000023352F82330BB61FB6903F003039B008C
:100E80000F2202FA03F3DB43BA691340BB617B68AC
:100E9000584A934237D07B68574A934231D07B6897
:100EA000564A93422BD07B68554A934225D07B68A3
:100EB000544A93421FD07B68534A934219D07B68AF
:100EC000524A934213D07B68514A93420DD07B68BB
:100ED000504A934207D07B684F4A934201D109237D
:100EE00012E00A2310E008230EE007230CE006239B
:100EF0000AE0052308E0042306E0032304E00223BC
:100F000002E0012300E00023FA6902F003029200EC
:100F10009340BA691343BB613549FB699B080233AF
:100F2000BA6941F823203D4B9B68BB613B69DB43B9
:100F3000BA691340BB613B685B6803F48013002B04
:100F400003D0BA693B691343BB61344ABB69936000
:100F5000324BDB68BB613B69DB43BA691340BB6161
:100F60003B685B6803F40013002B03D0BA693B694C
:100F70001343BB61294ABB69D360284B5B68BB61E3
:100F80003B69DB43BA691340BB613B685B6803F4B0
:100F90000033002B03D0BA693B691343BB611F4A7E
:100FA000BB6953601D4B1B68BB613B69DB43BA697E
:100FB0001340BB613B685B6803F48033002B03D0B4
:100FC000BA693B691343BB61144ABB691360FB698F
:100FD0000133FB61FB690F2B7FF684AE00BF00BFBE
:100FE0002437BD465DF8047B704700BF00380240DF
:100FF00000380140000002400004024000080240A6
:10100000000C024000100240001402400018024090
:10101000001C02400020024000240240003C01402D
:1010200080B483B000AF78600B467B8013467B7042
:101030007B78002B03D07A887B689A6103E07B88F9
:101040001A047B689A6100BF0C37BD465DF8047BCB
:101050007047000080B586B000AF78607B68002BD9
:1010600001D1012367E27B681B6803F00103002BB9
:1010700075D0884B9B6803F00C03042B0CD0854B78
:101080009B6803F00C03082B12D1824B5B6803F4BE
:101090008003B3F5800F0BD17E4B1B6803F4003344
:1010A000002B5BD07B685B68002B57D1012342E2A9
:1010B0007B685B68B3F5803F06D1764B1B68754A49
:1010C00043F4803313601DE07B685B68B3F5A02FA9
:1010D0000CD1704B1B686F4A43F4802313606D4B37
:1010E0001B686C4A43F4803313600BE0694B1B6848
:1010F000684A23F480331360664B1B68654A23F407
:10110000802313607B685B68002B13D0FFF7EAFC39
:10111000386108E0FFF7E6FC02463B69D31A642B0E
:1011200001D9032307E25B4B1B6803F40033002B58
:10113000F0D014E0FFF7D6FC386108E0FFF7D2FCEE
:1011400002463B69D31A642B01D90323F3E1514BC7
:101150001B6803F40033002BF0D100E000BF7B6874
:101160001B6803F00203002B63D04A4B9B6803F01B
:101170000C03002B0BD0474B9B6803F00C03082B90
:101180001CD1444B5B6803F48003002B16D1414B08
:101190001B6803F00203002B05D07B68DB68012B82
:1011A00001D00123C7E13B4B1B6823F0F8027B68A9
:1011B0001B69DB00374913430B603AE07B68DB684F
:1011C000002B20D0344B01221A60FFF78BFC3861D2
:1011D00008E0FFF787FC02463B69D31A022B01D9CE
:1011E0000323A8E12B4B1B6803F00203002BF0D074
:1011F000284B1B6823F0F8027B681B69DB0025493C
:1012000013430B6015E0244B00221A60FFF76AFCC1
:10121000386108E0FFF766FC02463B69D31A022BEF
:1012200001D9032387E11B4B1B6803F00203002B4A
:10123000F0D17B681B6803F00803002B36D07B6875
:101240005B69002B16D0154B01221A60FFF74AFC90
:10125000386108E0FFF746FC02463B69D31A022BCF
:1012600001D9032367E10B4B5B6F03F00203002BF3
:10127000F0D01BE0094B00221A60FFF733FC386105
:101280000EE0FFF72FFC02463B69D31A022B07D969
:10129000032350E10038024000004742800E4742DD
:1012A000884B5B6F03F00203002BEAD17B681B685D
:1012B00003F00403002B00F097800023FB75814BA3
:1012C0001B6C03F08053002B0FD10023BB607D4BC0
:1012D0001B6C7C4A43F0805313647A4B1B6C03F005
:1012E0008053BB60BB680123FB75774B1B6803F41D
:1012F0008073002B18D1744B1B68734A43F48073BE
:101300001360FFF7EFFB386108E0FFF7EBFB0246E5
:101310003B69D31A022B01D903230CE16A4B1B68EA
:1013200003F48073002BF0D07B689B68012B06D1FF
:10133000644B1B6F634A43F0010313671CE07B6837
:101340009B68052B0CD15F4B1B6F5E4A43F0040377
:1013500013675C4B1B6F5B4A43F0010313670BE0A1
:10136000584B1B6F574A23F001031367554B1B6FF4
:10137000544A23F0040313677B689B68002B15D045
:10138000FFF7B0FB38610AE0FFF7ACFB02463B69B0
:10139000D31A41F28832934201D90323CBE0494B5F
:1013A0001B6F03F00203002BEED014E0FFF79AFB53
:1013B00038610AE0FFF796FB02463B69D31A41F217
:1013C0008832934201D90323B5E03E4B1B6F03F0F3
:1013D0000203002BEED1FB7D012B05D1394B1B6C99
:1013E000384A23F0805313647B689B69002B00F01C
:1013F000A180344B9B6803F00C03082B5CD07B6806
:101400009B69022B41D1314B00221A60FFF76AFB26
:10141000386108E0FFF766FB02463B69D31A022BEE
:1014200001D9032387E0274B1B6803F00073002BCF
:10143000F0D17B68DA697B681B6A1A437B685B6A58
:101440009B011A437B689B6A5B08013B1B041A43A0
:101450007B68DB6A1B061B4913434B601B4B012255
:101460001A60FFF73FFB386108E0FFF73BFB0246DD
:101470003B69D31A022B01D903235CE0114B1B6893
:1014800003F00073002BF0D054E0104B00221A60E0
:10149000FFF728FB386108E0FFF724FB02463B69B1
:1014A000D31A022B01D9032345E0064B1B6803F036
:1014B0000073002BF0D13DE07B689B69012B07D1C5
:1014C000012338E0003802400070004060004742CD
:1014D0001B4B5B68FB607B689B69012B28D0FB681A
:1014E00003F480027B68DB699A4221D1FB6803F038
:1014F0003F027B681B6A9A421AD1FA6847F6C073AA
:1015000013407A68526A9201934211D1FB6803F446
:1015100040327B689B6A5B08013B1B049A4207D1FF
:10152000FB6803F070627B68DB6A1B069A4201D09D
:10153000012300E0002318461837BD4680BD00BFD8
:101540000038024080B584B000AF786039607B68B5
:10155000002B01D10123CCE0684B1B6803F00F0383
:101560003A689A420CD9654B3A68D2B21A70634B0A
:101570001B6803F00F033A689A4201D00123B8E0D8
:101580007B681B6803F00203002B20D07B681B687C
:1015900003F00403002B05D0594B9B68584A43F4D1
:1015A000E05393607B681B6803F00803002B05D0B1
:1015B000534B9B68524A43F460439360504B9B6883
:1015C00023F0F0027B689B684D4913438B607B6876
:1015D0001B6803F00103002B44D07B685B68012B80
:1015E00007D1474B1B6803F40033002B19D10123AB
:1015F0007FE07B685B68022B03D07B685B68032B12
:1016000007D13F4B1B6803F00073002B09D1012366
:101610006FE03B4B1B6803F00203002B01D1012359
:1016200067E0374B9B6823F003027B685B683449B3
:1016300013438B60FFF756FAF8600AE0FFF752FA9F
:101640000246FB68D31A41F28832934201D9032340
:101650004FE02B4B9B6803F00C027B685B689B00A0
:101660009A42EBD1254B1B6803F00F033A689A426C
:101670000CD2224B3A68D2B21A70204B1B6803F08E
:101680000F033A689A4201D0012332E07B681B685D
:1016900003F00403002B08D0194B9B6823F4E0529D
:1016A0007B68DB68164913438B607B681B6803F01B
:1016B0000803002B09D0124B9B6823F460427B681F
:1016C0001B69DB000E4913438B6000F021F80246D2
:1016D0000B4B9B681B0903F00F030A49CB5C22FAF2
:1016E00003F3094A1360094B1B681846FFF7B6F964
:1016F000002318461037BD4680BD00BF003C0240A5
:1017000000380240843A0008000000200400002055
:101710002DE9B04F90B000AF00237B630023FB6343
:1017200000233B630023BB63594B9B6803F00C030E
:10173000082B0DD0082B00F2A180002B02D0042B27
:1017400003D09BE0534BBB639BE0534BBB6398E0E0
:101750004F4B5B6803F03F037B634D4B5B6803F4C7
:101760008003002B28D04A4B5B689B0900223B6218
:101770007A623B6AC3F308000021474B03FB01F286
:10178000002300FB03F31344434AA0FB0212FA6256
:101790000A46BA62FA6A1344FB627B6B0022BB61A1
:1017A000FA61D7E90623D7E90A01FEF729FD0246C7
:1017B0000B461346FB6353E0354B5B689B090022E5
:1017C0003B617A613B69C3F3080A4FF0000B524654
:1017D0005B464FF000004FF00001590141EAD26131
:1017E000500102460B46B2EB0A0863EB0B094FF0BF
:1017F00000024FF000034FEA891343EA98634FEA6F
:101800008812B2EB080463EB09054FF000024FF0B9
:101810000003EB0043EA5473E20014461D4614EB48
:101820000A033B6045EB0B037B604FF000024FF077
:101830000003D7E9004529468B02214643EA91532C
:1018400021468A02104619467B6B0022BB60FA6073
:10185000D7E90223FEF7D4FC02460B461346FB638E
:101860000B4B5B681B0C03F0030301335B003B6312
:10187000FA6B3B6BB2FBF3F3BB6302E0054BBB635C
:1018800000BFBB6B18464037BD46BDE8B08F00BFF8
:10189000003802400024F40040787D0180B400AF9D
:1018A000034B1B681846BD465DF8047B704700BFBC
:1018B0000000002080B500AFFFF7F0FF0246054BA7
:1018C0009B689B0A03F007030349CB5C22FA03F3EE
:1018D000184680BD00380240943A000880B500AF39
:1018E000FFF7DCFF0246054B9B685B0B03F0070329
:1018F0000349CB5C22FA03F3184680BD003802404E
:10190000943A000880B586B000AF786000237B6110
:1019100000233B617B681B6803F00103002B0BD1A4
:101920007B681B6803F00203002B05D17B681B68F2
:1019300003F04003002B75D0914B00221A60FFF793
:10194000D1F8786108E0FFF7CDF802467B69D31A39
:10195000022B01D9032389E18A4B1B6803F0006342
:10196000002BF0D17B681B6803F00103002B09D02A
:101970007B685B689A017B689B681B0781491343FE
:10198000C1F884307B681B6803F00203002B1FD072
:101990007C4BD3F884301B0F03F007033B617B685B
:1019A0005B689A017B68DB681B061A433B691B076F
:1019B00074491343C1F88430724BD3F88C3023F050
:1019C0001F027B68DB69013B6E491343C1F88C3011
:1019D0007B681B6803F04003002B0DD07B685B68BD
:1019E0009A017B68DB681B061A437B689B681B07B0
:1019F00064491343C1F88430614B01221A60FFF738
:101A000071F8786108E0FFF76DF802467B69D31A38
:101A1000022B01D9032329E15A4B1B6803F0006311
:101A2000002BF0D07B681B6803F00403002B05D16A
:101A30007B681B6803F00803002B79D0524B00220F
:101A40001A60FFF74FF8786108E0FFF74BF802469D
:101A50007B69D31A022B01D9032307E1494B1B6889
:101A600003F00053B3F1005FEFD07B681B6803F015
:101A70000403002B20D0434BD3F888301B0F03F016
:101A800007033B617B681B699A017B685B691B06E6
:101A90001A433B691B073B491343C1F88830394B54
:101AA000D3F88C3023F4F8527B681B6A013B1B028D
:101AB00034491343C1F88C307B681B6803F008037A
:101AC000002B1ED02F4BD3F888301B0E03F00F03D2
:101AD0003B617B681B699A013B691B061A437B6863
:101AE0009B691B0727491343C1F88830254BD3F85E
:101AF0008C3023F440327B685B6A22491343C1F87F
:101B00008C30214B01221A60FEF7ECFF786108E06F
:101B1000FEF7E8FF02467B69D31A022B01D90323A3
:101B2000A4E0184B1B6803F00053B3F1005FEFD142
:101B30007B681B6803F02003002B00F08B800023E0
:101B4000FB60104B1B6C0F4A43F0805313640D4B2A
:101B50001B6C03F08053FB60FB680C4B1B680B4A4B
:101B600043F480731360FEF7BDFF786110E0FEF769
:101B7000B9FF02467B69D31A022B09D9032375E00A
:101B80006800474200380240700047420070004041
:101B9000384B1B6803F48073002BE8D0364B1B6F67
:101BA00003F440733B613B69002B2FD07B689B6A39
:101BB00003F440733A699A4228D02F4B1B6F23F4E9
:101BC00040733B612D4B01221A602C4B00221A609E
:101BD000294A3B691367284B1B6F03F00103012B54
:101BE00014D1FEF77FFF78610AE0FEF77BFF024623
:101BF0007B69D31A41F28832934201D9032335E03D
:101C00001D4B1B6F03F00203002BEED07B689B6A19
:101C100003F44073B3F5407F0DD1174B9B6823F459
:101C2000F8127B689B6A23F0704323F440731249D7
:101C300013438B6005E0104B9B680F4A23F4F813A5
:101C400093600D4B1A6F7B689B6AC3F30B030A49C1
:101C500013430B677B681B6803F01003002B04D051
:101C60007B6893F82C20064B1A600023184618371F
:101C7000BD4680BD0070004000380240400E474223
:101C8000E011474280B584B000AF78600123FB7358
:101C90007B68002B01D1012366E07B685B7FDBB2B0
:101CA000002B05D17B6800221A777868FEF7DEFDED
:101CB0007B6802225A777B681B68CA225A627B685B
:101CC0001B6853225A62786800F07AF80346FB7367
:101CD000FB7B002B2CD17B681B689B687A681268A1
:101CE00023F4E00323F0400393607B681B6899684A
:101CF0007B685A687B681B691A437B685B691A4377
:101D00007B681B680A439A607B681B687A68D268A4
:101D10001A617B681B6819697B689B681A047B6879
:101D20001B680A431A61786800F081F80346FB7368
:101D3000FB7B002B13D17B681B681A6C7B681B68CC
:101D400022F480221A647B681B68196C7B689A698C
:101D50007B681B680A431A647B6801225A777B6898
:101D60001B68FF225A62FB7B18461037BD4680BDB8
:101D700080B584B000AF78600023FB607B681B688F
:101D8000DA687B681B6822F0A002DA60FEF7AAFE20
:101D9000F86009E0FEF7A6FE0246FB68D31AB3F529
:101DA0007A7F01D9032307E07B681B68DB6803F0B7
:101DB0002003002BEED0002318461037BD4680BD0F
:101DC00080B584B000AF78600023BB600023FB7354
:101DD0007B681B68DB6803F04003002B22D17B6823
:101DE0001B68DA687B681B6842F08002DA60FEF7E5
:101DF00079FEB8600CE0FEF775FE0246BB68D31AA8
:101E0000B3F57A7F04D97B6804225A770123FB73E8
:101E10007B681B68DB6803F04003002B02D1FB7B6F
:101E2000012BE8D1FB7B18461037BD4680BD80B53D
:101E300084B000AF78600023FB737B681B68DA68AE
:101E40007B681B6822F08002DA607B681B689B68F5
:101E500003F02003002B0AD17868FFF789FF0346BF
:101E6000002B04D07B6804225A770123FB73FB7B91
:101E700018461037BD4680BD80B582B000AF78608F
:101E80007B68002B01D101233FE07B6893F83D3054
:101E9000DBB2002B06D17B68002283F83C207868F7
:101EA000FEF70EFD7B68242283F83D207B681B68CB
:101EB000DA687B681B6822F40052DA60786800F008
:101EC00029F97B681B681A697B681B6822F49042B9
:101ED0001A617B681B685A697B681B6822F02A02BA
:101EE0005A617B681B68DA687B681B6842F40052A1
:101EF000DA607B6800221A647B68202283F83D2028
:101F00007B68202283F83E20002318460837BD4610
:101F100080BD80B58AB002AFF860B9603B601346FF
:101F2000FB8000237B61FB6893F83D30DBB2202B04
:101F30007CD1BB68002B02D0FB88002B01D1012390
:101F400075E0FB6893F83C30012B01D102236EE071
:101F5000FB68012283F83C20FB6800221A64FB68BE
:101F6000212283F83D20FEF7BDFD7861FB68FA88E9
:101F70009A84FB68FA88DA84FB689B68B3F5805F13
:101F800008D1FB681B69002B04D10023FB61BB68EF
:101F9000BB6103E0BB68FB610023BB61FB680022FF
:101FA00083F83C202AE03B6800937B690022802173
:101FB000F86800F040F80346002B01D0032336E018
:101FC000FB69002B0BD1BB691B881A46FB681B6899
:101FD000C2F308025A60BB690233BB6107E0FB69C8
:101FE0001A78FB681B685A60FB690133FB61FB6868
:101FF000DB8C9BB2013B9AB2FB68DA84FB68DB8C1A
:102000009BB2002BCFD13B6800937B69002240211B
:10201000F86800F010F80346002B01D0032306E017
:10202000FB68202283F83D20002300E002231846AD
:102030002037BD4680BD80B590B000AFF860B96074
:102040003B601346FB7150E0BB6CB3F1FF3F4CD0DB
:10205000BB6C002B07D0FEF745FD02463B68D31A48
:10206000BA6C9A4241D2FB681B680C33BB62BB6AF4
:1020700053E8003F7B627B6A23F4D073FB63FB6809
:102080001B680C33FA6B7A633B63396B7A6B41E8FC
:102090000023FB62FB6A002BE5D1FB681B6814334D
:1020A0007B617B6953E8003F3B613B6923F001039F
:1020B000BB63FB681B681433BA6B3A62FB61F96956
:1020C0003A6A41E80023BB61BB69002BE5D1FB689C
:1020D000202283F83D20FB68202283F83E20FB6805
:1020E000002283F83C2003230FE0FB681B681A687A
:1020F000BB681340BA689A420CBF01230023DBB2CD
:102100001A46FB799A429FD0002318464037BD46B5
:1021100080BD00002DE9B04FC0B000AFC7F8F4009B
:10212000D7F8F4301B681B6923F44050D7F8F4301B
:10213000D968D7F8F4301A6840EA01031361D7F878
:10214000F4309A68D7F8F4301B691A43D7F8F430A2
:102150005B691A43D7F8F430DB691343C7F8F830EA
:10216000D7F8F4301B68DB6823F4164121F00C012A
:10217000D7F8F4301A68D7F8F8300B43D360D7F8A3
:10218000F4301B685B6923F44070D7F8F430996928
:10219000D7F8F4301A6840EA01035361D7F8F430F5
:1021A0001A688F4B9A4205D0D7F8F4301A688D4BD5
:1021B0009A4204D1FFF792FBC7F8FC0003E0FFF757
:1021C00079FBC7F8FC00D7F8F430DB69B3F5004FB2
:1021D00040F00C81D7F8FC300022C7F8E830C7F88F
:1021E000EC20D7E93A4522462B469118B9655B4168
:1021F000FB65D7E91623214612EB0108294643EB7C
:1022000001094FF000024FF000034FEAC90343EA0F
:1022100058734FEAC80290469946234618EB0303C9
:10222000C7F8E0302B4649EB0303C7F8E430D7F892
:10223000F4305B680022C7F8D830C7F8DC20D7E953
:1022400036120B46DB183B65134642EB03037B65F6
:10225000D7E91423D7E93801FDF7D2FF02460B4630
:10226000614BA3FB02235B091C01D7F8FC30002261
:10227000C7F8D030C7F8D420D7E9348942464B4656
:102280009118B9645B41FB64D7E91223414612EB14
:10229000010A494643EB010B4FF000024FF00003E7
:1022A0004FEACB0343EA5A734FEACA0292469B466F
:1022B00043461AEB0303C7F8C8304B464BEB030306
:1022C000C7F8CC30D7F8F4305B680022C7F8C030CC
:1022D000C7F8C420D7E930120B46DB183B6413461D
:1022E00042EB03037B64D7E91023D7E93201FDF702
:1022F00087FF02460B4611463B4BA3FB01235B09BC
:10230000642202FB03F3CB1ADB0003F13202364BEB
:10231000A3FB02235B095B0003F4F8731C44D7F8AA
:10232000FC300022C7F8B830C7F8BC20D7E92E89A6
:1023300042464B469118B9635B41FB63D7E90E23D4
:1023400041465118396349464B417B634FF00002C7
:102350004FF00003D7E90CAB5946CB00514643EA96
:1023600051735146CA0010461946034642469B180F
:10237000C7F8B0304B460A4642EB0303C7F8B43007
:10238000D7F8F4305B680022C7F8A830C7F8AC2053
:10239000D7E92A120B46DB18BB62134642EB030354
:1023A000FB62D7E90A23D7E92C01FDF729FF024692
:1023B0000B460D4BA3FB02135B09642101FB03F3E6
:1023C000D31ADB003233084AA2FB03235B0903F074
:1023D0000702D7F8F4301B6822449A6005E100BF79
:1023E00000100140001401401F85EB51D7F8FC306C
:1023F0000022C7F8A030C7F8A420D7E928894246B0
:102400004B46911839625B417B62D7E9082341460C
:102410005418494643EB01054FF000024FF000030A
:10242000EB0043EA5473E20014461D464346E318AA
:10243000C7F898304B4645EB0303C7F89C30D7F8F4
:10244000F4305B680022C7F89030C7F894204FF052
:1024500000024FF00003D7E9244529468B002146AE
:1024600043EA917321468A00D7E92601FDF7C8FEA9
:1024700002460B46604BA3FB02235B091C01D7F805
:10248000FC300022C7F88830C7F88C20D7E92289B1
:1024900042464B469118B9615B41FB61D7E906237F
:1024A00041465118396149464B417B614FF000026A
:1024B0004FF00003D7E904AB5946CB00514643EA3D
:1024C00051735146CA0010461946034642469B18AE
:1024D000C7F880304B460A4642EB0303C7F8843006
:1024E000D7F8F4305B680022BB67FA674FF0000250
:1024F0004FF00003D7E91E8949468B00414643EA65
:10250000917341468A00D7E92001FDF779FE024622
:102510000B46394BA3FB02135B09642101FB03F358
:10252000D31A1B013233344AA2FB03235B0903F0A5
:10253000F0031C44D7F8FC3000223B677A67D7E9E8
:102540001C8942464B469118B9605B41FB60D7E954
:10255000022341465118396049464B417B604FF098
:1025600000024FF00003D7E900AB5946CB005146BB
:1025700043EA51735146CA00104619460346424683
:102580009B18BB664B460A4642EB0303FB66D7F833
:10259000F4305B6800223B667A664FF000024FF031
:1025A0000003D7E9188949468B00414643EA9173F5
:1025B00041468A00D7E91A01FDF722FE02460B4682
:1025C0000D4BA3FB02135B09642101FB03F3D31A38
:1025D0001B013233084AA2FB03235B0903F00F02FD
:1025E000D7F8F4301B6822449A6000BF07F5807763
:1025F000BD46BDE8B08F00BF1F85EB5180B500AF71
:1026000000F07EFA0023184680BD80B483B000AF8E
:1026100078607B6803F108027B685A607B684FF042
:10262000FF329A607B6803F108027B68DA607B689E
:1026300003F108027B681A617B6800221A6000BF00
:102640000C37BD465DF8047B704780B483B000AFA3
:1026500078607B6800221A6100BF0C37BD465DF8C8
:10266000047B704780B485B000AF786039607B68C8
:102670005B68FB603B68FA685A60FB689A683B6875
:102680009A60FB689B683A685A60FB683A689A608F
:102690003B687A681A617B681B685A1C7B681A6001
:1026A00000BF1437BD465DF8047B704780B485B029
:1026B00000AF786039603B681B68BB60BB68B3F1F2
:1026C000FF3F03D17B681B69FB600CE07B6808332C
:1026D000FB6002E0FB685B68FB60FB685B681B6893
:1026E000BA689A42F6D2FB685A683B685A603B68FF
:1026F0005B683A689A603B68FA689A60FB683A6877
:102700005A603B687A681A617B681B685A1C7B6850
:102710001A6000BF1437BD465DF8047B704780B473
:1027200085B000AF78607B681B69FB607B685B6885
:102730007A6892689A607B689B687A6852685A6087
:10274000FB685B687A689A4203D17B689A68FB6889
:102750005A607B6800221A61FB681B685A1EFB687E
:102760001A60FB681B6818461437BD465DF8047B89
:10277000704780B58EB004AFF860B9607A603B6096
:102780007B6B002B0AD14FF0500383F31188BFF30A
:102790006F8FBFF34F8F3B6200BFFEE7BB6B002B19
:1027A0000AD14FF0500383F31188BFF36F8FBFF34B
:1027B0004F8FFB6100BFFEE754233B613B69542B05
:1027C0000AD04FF0500383F31188BFF36F8FBFF32C
:1027D0004F8FBB6100BFFEE73B69BB6B002B1ED078
:1027E0007B6B002B1BD0BB6B7B627B6A7A6B1A63A3
:1027F0007B6A022283F85120002303937B6A0293B1
:1028000007F1140301933B6B00933B687A68B96846
:10281000F86800F050F8786A00F0D4F801E000237E
:102820007B617B6918462837BD4680BD80B58CB07A
:1028300004AFF860B9603B601346FB80FB889B00E7
:10284000184600F0E1FE78617B69002B0ED0542021
:1028500000F0DAFEF861FB69002B03D0FB697A69AE
:102860001A6305E0786900F09BFF01E00023FB613B
:10287000FB69002B17D0FB69002283F85120FA88EE
:1028800000230393FB690293FB6A0193BB6A0093E5
:102890003B68B968F86800F00EF8F86900F092F843
:1028A0000123BB6102E04FF0FF33BB61BB691846F7
:1028B0002037BD4680BD80B588B000AFF860B960F4
:1028C0007A603B603B6B1A6B7B6803F18043013B92
:1028D0009B001344BB61BB6923F00703BB61BB6969
:1028E00003F00703002B0AD04FF0500383F3118845
:1028F000BFF36F8FBFF34F8F7B6100BFFEE7BB68F5
:10290000002B1FD00023FB6112E0BA68FB6913445F
:1029100019783A6BFB69134434330A461A70BA6863
:10292000FB6913441B78002B06D0FB690133FB6164
:10293000FB690F2BE9D900E000BF3B6B002283F855
:10294000432003E03B6B002283F83420BB6A062B54
:1029500001D90623BB623B6BBA6ADA623B6BBA6A87
:102960005A643B6B00229A643B6B04331846FFF7B2
:102970006CFE3B6B18331846FFF767FE3B6B3A6BF8
:102980001A61BB6AC3F107023B6B9A613B6B3A6BFE
:102990005A623B6B0022DA643B6B002283F85020C2
:1029A0003A68F968B86900F023FC02463B6B1A608C
:1029B000FB6A002B02D0FB6A3A6B1A6000BF20371B
:1029C000BD4680BD80B582B000AF786000F03AFDB2
:1029D0002A4B1B680133294A1360294B1B68002BC3
:1029E00009D1274A7B681360244B1B68012B10D147
:1029F00000F0BCFA0DE0234B1B68002B09D1204BE3
:102A00001B68DA6A7B68DB6A9A4202D81C4A7B68D8
:102A100013601D4B1B6801331B4A13607B68DB6A24
:102A200001229A40194B1B681343184A13607B68B4
:102A3000DA6A13469B0013449B00154A1A447B68CC
:102A4000043319461046FFF70DFE00F02BFD0D4B29
:102A50001B68002B0ED00A4B1B68DA6A7B68DB6AA6
:102A60009A4207D20B4B4FF080521A60BFF34F8F40
:102A7000BFF36F8F00BF0837BD4680BDE80300205D
:102A8000E8020020F403002004040020F0030020EA
:102A9000EC02002004ED00E080B584B000AF786067
:102AA0000023FB607B68002B17D0134B1B68002BA7
:102AB0000AD04FF0500383F31188BFF36F8FBFF339
:102AC0004F8FBB6000BFFEE700F07AF80021786806
:102AD00000F028FB00F082F8F860FB68002B07D1BB
:102AE000064B4FF080521A60BFF34F8FBFF36F8FCA
:102AF00000BF1037BD4680BD1004002004ED00E08B
:102B000080B58AB004AF0023BB6000237B603A46E7
:102B1000391D07F108031846FDF7F4FC39687B6896
:102B2000BA68029201930023009300230A461E49CB
:102B30001E48FFF71EFE03461D4A13601C4B1B6810
:102B4000002B02D001237B6101E000237B617B69C4
:102B5000012B16D14FF0500383F31188BFF36F8F11
:102B6000BFF34F8F3B6100BF124B4FF0FF321A6033
:102B7000114B01221A60114B00221A6000F0C0FBB9
:102B80000EE07B69B3F1FF3F0AD14FF0500383F3AE
:102B90001188BFF36F8FBFF34F8FFB6000BFFEE75D
:102BA00000BF1837BD4680BD7C3A00083D2F0008A5
:102BB0000C04002008040020F4030020EC03002093
:102BC00080B400AF044B1B680133034A136000BF9D
:102BD000BD465DF8047B70471004002080B584B0CA
:102BE00000AF0023FB600023BB60414B1B68002B40
:102BF0000AD14FF0500383F31188BFF36F8FBFF3F7
:102C00004F8F3B6000BFFEE700F01CFC384B1B6899
:102C1000013B374A1360364B1B68002B61D1354BA3
:102C20001B68002B5DD02EE0334BDB68DB68FB605C
:102C3000FB6818331846FFF772FDFB68043318462B
:102C4000FFF76DFDFB68DB6A01229A402B4B1B6886
:102C500013432A4A1360FB68DA6A13469B00134445
:102C60009B00274A1A44FB68043319461046FFF7B5
:102C7000F9FCFB68DA6A234B1B68DB6A9A4202D3D1
:102C8000214B01221A601C4B1B68002BCCD1FB6826
:102C9000002B01D000F008FA1C4B1B687B607B689E
:102CA000002B10D000F036F80346002B02D0164B54
:102CB00001221A607B68013B7B607B68002BF1D1AD
:102CC000124B00221A60104B1B68002B09D0012305
:102CD000BB600F4B4FF080521A60BFF34F8FBFF3B2
:102CE0006F8F00F0DFFBBB6818461037BD4680BD14
:102CF00010040020E8030020A8030020F0030020B7
:102D0000EC020020E8020020FC030020F803002071
:102D100004ED00E080B586B000AF00237B614E4B30
:102D20001B68002B40F08E804C4B1B6801333B61CD
:102D30004A4A3B6913603B69002B20D1484B1B6812
:102D40001B68002B0AD04FF0500383F31188BFF3A8
:102D50006F8FBFF34F8F3B6000BFFEE7404B1B6898
:102D6000FB60404B1B683E4A13603E4AFB681360A1
:102D70003D4B1B6801333C4A136000F095F93B4B17
:102D80001B683A699A4248D3354B1B681B68002B75
:102D900004D1364B4FF0FF321A603EE0304B1B68D7
:102DA000DB68DB68BB60BB685B687B603A697B683B
:102DB0009A4203D22D4A7B6813602EE0BB6804332D
:102DC0001846FFF7ACFCBB689B6A002B04D0BB68BD
:102DD00018331846FFF7A3FCBB68DB6A01229A4050
:102DE000234B1B681343224A1360BB68DA6A1346FD
:102DF0009B0013449B001F4A1A44BB6804331946C6
:102E00001046FFF72FFCBB68DA6A1B4B1B68DB6AB6
:102E10009A42B9D301237B61B6E7174B1B68DA6A84
:102E2000144913469B0013449B000B441B68012B61
:102E300001D901237B61114B1B68002B07D00123B3
:102E40007B6104E00E4B1B6801330D4A13607B6904
:102E500018461837BD4680BD10040020EC03002042
:102E6000A0030020A4030020000400200804002088
:102E7000F0030020EC020020E8020020FC03002008
:102E8000F803002080B487B000AF274B1B68002BED
:102E900003D0264B01221A603FE0244B00221A6027
:102EA000234B1B68FB60FB68B3FA83F3FB72FB7A6E
:102EB000C3F11F037B611F497A6913469B001344CA
:102EC0009B000B441B68002B0AD14FF0500383F387
:102ED0001188BFF36F8FBFF34F8F7B6000BFFEE79A
:102EE0007A6913469B0013449B00124A13443B61CA
:102EF0003B695B685A683B695A603B695A683B6941
:102F000008339A4204D13B695B685A683B695A604E
:102F10003B695B68DB68084A136000BF1C37BD462D
:102F20005DF8047B704700BF10040020FC03002004
:102F3000F0030020EC020020E802002080B582B0FF
:102F400000AF786000F052F8064B1B68012BF9D9EE
:102F5000054B4FF080521A60BFF34F8FBFF36F8F56
:102F6000F0E700BFEC02002004ED00E080B582B085
:102F700000AF00237B600CE07A6813469B0013448B
:102F80009B00124A13441846FFF73FFB7B6801334E
:102F90007B607B68062BEFD90D48FFF736FB0D48A9
:102FA000FFF733FB0C48FFF730FB0C48FFF72DFB16
:102FB0000B48FFF72AFB0B4B054A1A600A4B054AE0
:102FC0001A6000BF0837BD4680BD00BFEC0200207C
:102FD000780300208C030020A8030020BC030020FD
:102FE000D4030020A0030020A403002080B582B0F9
:102FF00000AF19E000F026FA104BDB68DB687B605D
:103000007B6804331846FFF78AFB0D4B1B68013BB6
:103010000B4A13600B4B1B68013B0A4A136000F01C
:1030200041FA786800F010F8064B1B68002BE1D1DC
:1030300000BF00BF0837BD4680BD00BFBC030020F5
:10304000E8030020D003002080B584B000AF786092
:103050007B6893F85130002B08D17B681B6B1846B6
:1030600000F09EFB786800F09BFB18E07B6893F80B
:103070005130012B03D1786800F092FB0FE07B68A0
:1030800093F85130022B0AD04FF0500383F311888C
:10309000BFF36F8FBFF34F8FFB6000BFFEE700BF32
:1030A0001037BD4680BD000080B483B000AF0C4B2C
:1030B0001B681B68002B04D10A4B4FF0FF321A60CB
:1030C00008E0074B1B68DB68DB687B607B685B683C
:1030D000044A136000BF0C37BD465DF8047B70479F
:1030E000A00300200804002080B483B000AF0B4B85
:1030F0001B68002B02D101237B6008E0084B1B6892
:10310000002B02D102237B6001E000237B607B68FF
:1031100018460C37BD465DF8047B7047F403002069
:103120001004002080B584B000AF78603960294B6E
:103130001B68FB60284B1B6804331846FFF7EFFA47
:103140000346002B0BD1244B1B68DB6A012202FAD9
:1031500003F3DA43214B1B681340204A13607B685A
:10316000B3F1FF3F0AD13B68002B07D01A4B1B6815
:10317000043319461A48FFF775FA26E0FA687B68A7
:103180001344BB60144B1B68BA685A60BA68FB688A
:103190009A4209D2134B1A680F4B1B680433194625
:1031A0001046FFF783FA10E00F4B1A680A4B1B68B2
:1031B000043319461046FFF779FA0C4B1B68BA68BE
:1031C0009A4202D2094ABB68136000BF1037BD465D
:1031D00080BD00BFEC030020E8020020F0030020C7
:1031E000D4030020A4030020A00300200804002032
:1031F00080B485B000AFF860B9607A60FB68043BCA
:10320000FB60FB684FF080721A60FB68043BFB6058
:10321000BB6823F00102FB681A60FB68043BFB609B
:103220000C4AFB681A60FB68143BFB607A68FB6819
:103230001A60FB68043BFB60FB686FF002021A60D7
:10324000FB68203BFB60FB6818461437BD465DF801
:10325000047B70475932000880B485B000AF00236A
:103260007B60124B1B68B3F1FF3F0AD04FF0500355
:1032700083F31188BFF36F8FBFF34F8FFB6000BFE5
:10328000FEE74FF0500383F31188BFF36F8FBFF356
:103290004F8FBB6000BF00BF7B68002BFCD000BF1E
:1032A00000BF1437BD465DF8047B70470C0000205A
:1032B000074B19680868B0E8F04F80F30988BFF33E
:1032C0006F8F4FF0000080F311887047AFF30080DC
:1032D000E802002000BF00BF08480068006880F3D3
:1032E00008884FF0000080F3148862B661B6BFF31F
:1032F0004F8FBFF36F8F00DF00BF00BF08ED00E00E
:1033000080B586B000AF464B1B68464A93420AD14F
:103310004FF0500383F31188BFF36F8FBFF34F8FCC
:103320003B6100BFFEE73E4B1B683F4A93420AD118
:103330004FF0500383F31188BFF36F8FBFF34F8FAC
:10334000FB6000BFFEE7394B7B617B691B78DBB21A
:103350007B607B69FF221A707B691B78DBB2FB7094
:10336000FB78DBB203F05003DAB2314B1A70314B09
:1033700007221A6009E02F4B1B68013B2D4A13609E
:10338000FB78DBB25B00DBB2FB70FB78DBB203F0F7
:103390008003802BEFD0274B1B68C3F10703042B5E
:1033A0000AD04FF0500383F31188BFF36F8FBFF340
:1033B0004F8FBB6000BFFEE71E4B1B681B021D4A00
:1033C00013601C4B1B6803F4E0631A4A13607B68AC
:1033D000DAB27B691A70184B1B68174A43F4700302
:1033E0001360154B1B68144A43F07043136000F0E0
:1033F000DDF8124B00221A6000F0FCF8104B1B683D
:103400000F4A43F040431360FFF766FFFFF73AFDB2
:10341000FFF722FF002318461837BD4680BD00BFC6
:1034200000ED00E071C20F4170C20F4100E400E006
:10343000140400201804002020ED00E00C000020FF
:1034400034EF00E080B483B000AF4FF0500383F35B
:103450001188BFF36F8FBFF34F8F7B6000BF0F4B9F
:103460001B6801330D4A13600C4B1B68012B0FD1F5
:103470000B4B1B68DBB2002B0AD04FF0500383F3D9
:103480001188BFF36F8FBFF34F8F3B6000BFFEE724
:1034900000BF0C37BD465DF8047B70470C00002070
:1034A00004ED00E080B483B000AF124B1B68002B2A
:1034B0000AD14FF0500383F31188BFF36F8FBFF32E
:1034C0004F8F7B6000BFFEE70A4B1B68013B094A38
:1034D0001360084B1B68002B05D100233B603B6841
:1034E00083F3118800BF00BF0C37BD465DF8047B35
:1034F000704700BF0C00002000000000000000002A
:10350000EFF30980BFF36F8F154B1A681EF0100F91
:1035100008BF20ED108A20E9F04F10602DE9090066
:103520004FF0500080F31188BFF34F8FBFF36F8FC0
:10353000FFF7A8FC4FF0000080F3118809BC196860
:103540000868B0E8F04F1EF0100F08BFB0EC108A0A
:1035500080F30988BFF36F8F704700BFAFF300801F
:10356000E802002000BF00BF80B582B000AF4FF07E
:10357000500383F31188BFF36F8FBFF34F8F7B60CE
:1035800000BFFFF7C7FB0346002B03D0064B4FF0ED
:1035900080521A6000233B603B6883F3118800BFB0
:1035A00000BF0837BD4680BD04ED00E080B400AF29
:1035B0000B4B00221A600B4B00221A600A4B1B684F
:1035C0000A4AA2FB03239B09094A013B1360044BEF
:1035D00007221A6000BFBD465DF8047B704700BF3C
:1035E00010E000E018E000E000000020D34D621081
:1035F00014E000E0DFF80C00016841F470010160A4
:10360000704700BF88ED00E080B58AB000AF7860F9
:103610000023FB61FFF7D4FA5B4B1B68002B01D141
:1036200000F020F9594B1A687B681340002B40F0DA
:1036300093807B68002B1DD008227B6813447B603D
:103640007B6803F00703002B14D07B6823F007038B
:1036500008337B607B6803F00703002B0AD04FF030
:10366000500383F31188BFF36F8FBFF34F8F7B61DC
:1036700000BFFEE77B68002B6ED0454B1B687A6865
:103680009A4269D8434B3B62424B1B687B6204E021
:103690007B6A3B627B6A1B687B627B6A5B687A68D9
:1036A0009A4203D97B6A1B68002BF1D1364B1B6809
:1036B0007A6A9A4250D03B6A1B6808221344FB6125
:1036C0007B6A1A683B6A1A607B6A5A687B68D21AFE
:1036D00008235B009A421FD97A6A7B681344BB6156
:1036E000BB6903F00703002B0AD04FF0500383F3AC
:1036F0001188BFF36F8FBFF34F8F3B6100BFFEE7B1
:103700007B6A5A687B68D21ABB695A607B6A7A689E
:103710005A60B86900F008F91D4B1A687B6A5B684B
:10372000D31A1B4A13601A4B1A681B4B1B689A4228
:1037300003D2174B1B68184A13607B6A5A68134BF5
:103740001B681A437B6A5A607B6A00221A60134B1B
:103750001B680133114A1360FFF740FAFB6903F05D
:103760000703002B0AD04FF0500383F31188BFF3F7
:103770006F8FBFF34F8FFB6000BFFEE7FB691846FA
:103780002837BD4680BD00BF2440002038400020BF
:10379000284000201C4000202C4000203040002009
:1037A00080B586B000AF78607B687B617B68002B5A
:1037B0004DD008235B427A6913447B617B693B618E
:1037C0003B695A68244B1B681340002B0AD14FF009
:1037D000500383F31188BFF36F8FBFF34F8FFB60EC
:1037E00000BFFEE73B691B68002B0AD04FF0500377
:1037F00083F31188BFF36F8FBFF34F8FBB6000BFA0
:10380000FEE73B695A68144B1B681340002B1ED01F
:103810003B691B68002B1AD13B695A680E4B1B6829
:10382000DB431A403B695A60FFF7CAF93B695A68A3
:103830000A4B1B681344094A1360386900F074F896
:10384000074B1B680133064A1360FFF7C7F900BF37
:103850001837BD4680BD00BF3840002028400020FA
:103860003440002080B485B000AF4FF47053BB608B
:10387000274BFB60FB6803F00703002B0CD0FB68B1
:103880000733FB60FB6823F00703FB60BA68FB6843
:10389000D31A1F4A1344BB60FB687B601D4A7B68D8
:1038A00013601C4B00225A607B68BA681344FB60AB
:1038B0000822FB689B1AFB60FB6823F00703FB6090
:1038C000FB68154A1360144B1B6800225A60124BA8
:1038D0001B6800221A607B683B603B68FA68D21A5A
:1038E0003B685A600C4B1A683B681A603B685B681F
:1038F0000A4A13603B685B68094A1360094B4FF042
:1039000000421A6000BF1437BD465DF8047B704763
:103910001C0400201C400020244000202C400020DB
:10392000284000203840002080B485B000AF786087
:10393000284BFB6002E0FB681B68FB60FB681B68B0
:103940007A689A42F7D8FB68BB60FB685B68BA6824
:1039500013447A689A4208D1FB685A687B685B68AE
:103960001A44FB685A60FB687B607B68BB607B68BD
:103970005B68BA681A44FB681B689A4218D1FB68F6
:103980001A68154B1B689A420DD07B685A68FB6811
:103990001B685B681A447B685A60FB681B681A687E
:1039A0007B681A6008E00C4B1A687B681A6003E0B9
:1039B000FB681A687B681A60FA687B689A4202D0D2
:1039C000FB687A681A6000BF1437BD465DF8047B57
:1039D000704700BF1C4000202440002070B50D4DF2
:1039E0000D4C641BA4100026A64209D10B4D0C4CB3
:1039F00000F020F8641BA4100026A64205D170BD7B
:103A000055F8043B98470136EEE755F8043B9847D4
:103A10000136F2E7A43A0008A43A0008A43A0008E4
:103A2000A83A000802440346934200D1704703F8C5
:103A3000011BF9E7F8B500BFF8BC08BC9E4670470B
:0C3A4000F8B500BFF8BC08BC9E467047FB
:103A4C004D61696E205461736B0D0A004F54412017
:103A5C005461736B0D0A00006F7461207461736B99
:103A6C00000000006D61696E207461736B000000D2
:103A7C0049444C450000000000000000000000001C
:103A8C0001020304060708090000000001020304F8
:083A9C0094C7FF7F0100000048
:043AA400D501000840
:043AA800B101000860
:103AAC000024F4001000000001000000AAAAAAAA39
:04000005080009C521
:00000001FF
